{
  "_format": "hh3-artifact-1",
  "contractName": "VividNFT",
  "sourceName": "contracts/JobTwo/VividNFT.sol",
  "abi": [
    {
      "inputs": [
        {
          "internalType": "string",
          "name": "name_",
          "type": "string"
        },
        {
          "internalType": "string",
          "name": "symbol_",
          "type": "string"
        }
      ],
      "stateMutability": "nonpayable",
      "type": "constructor"
    },
    {
      "inputs": [
        {
          "internalType": "address",
          "name": "sender",
          "type": "address"
        },
        {
          "internalType": "uint256",
          "name": "tokenId",
          "type": "uint256"
        },
        {
          "internalType": "address",
          "name": "owner",
          "type": "address"
        }
      ],
      "name": "ERC721IncorrectOwner",
      "type": "error"
    },
    {
      "inputs": [
        {
          "internalType": "address",
          "name": "operator",
          "type": "address"
        },
        {
          "internalType": "uint256",
          "name": "tokenId",
          "type": "uint256"
        }
      ],
      "name": "ERC721InsufficientApproval",
      "type": "error"
    },
    {
      "inputs": [
        {
          "internalType": "address",
          "name": "approver",
          "type": "address"
        }
      ],
      "name": "ERC721InvalidApprover",
      "type": "error"
    },
    {
      "inputs": [
        {
          "internalType": "address",
          "name": "operator",
          "type": "address"
        }
      ],
      "name": "ERC721InvalidOperator",
      "type": "error"
    },
    {
      "inputs": [
        {
          "internalType": "address",
          "name": "owner",
          "type": "address"
        }
      ],
      "name": "ERC721InvalidOwner",
      "type": "error"
    },
    {
      "inputs": [
        {
          "internalType": "address",
          "name": "receiver",
          "type": "address"
        }
      ],
      "name": "ERC721InvalidReceiver",
      "type": "error"
    },
    {
      "inputs": [
        {
          "internalType": "address",
          "name": "sender",
          "type": "address"
        }
      ],
      "name": "ERC721InvalidSender",
      "type": "error"
    },
    {
      "inputs": [
        {
          "internalType": "uint256",
          "name": "tokenId",
          "type": "uint256"
        }
      ],
      "name": "ERC721NonexistentToken",
      "type": "error"
    },
    {
      "inputs": [
        {
          "internalType": "address",
          "name": "owner",
          "type": "address"
        }
      ],
      "name": "OwnableInvalidOwner",
      "type": "error"
    },
    {
      "inputs": [
        {
          "internalType": "address",
          "name": "account",
          "type": "address"
        }
      ],
      "name": "OwnableUnauthorizedAccount",
      "type": "error"
    },
    {
      "anonymous": false,
      "inputs": [
        {
          "indexed": true,
          "internalType": "address",
          "name": "owner",
          "type": "address"
        },
        {
          "indexed": true,
          "internalType": "address",
          "name": "approved",
          "type": "address"
        },
        {
          "indexed": true,
          "internalType": "uint256",
          "name": "tokenId",
          "type": "uint256"
        }
      ],
      "name": "Approval",
      "type": "event"
    },
    {
      "anonymous": false,
      "inputs": [
        {
          "indexed": true,
          "internalType": "address",
          "name": "owner",
          "type": "address"
        },
        {
          "indexed": true,
          "internalType": "address",
          "name": "operator",
          "type": "address"
        },
        {
          "indexed": false,
          "internalType": "bool",
          "name": "approved",
          "type": "bool"
        }
      ],
      "name": "ApprovalForAll",
      "type": "event"
    },
    {
      "anonymous": false,
      "inputs": [
        {
          "indexed": false,
          "internalType": "uint256",
          "name": "_fromTokenId",
          "type": "uint256"
        },
        {
          "indexed": false,
          "internalType": "uint256",
          "name": "_toTokenId",
          "type": "uint256"
        }
      ],
      "name": "BatchMetadataUpdate",
      "type": "event"
    },
    {
      "anonymous": false,
      "inputs": [
        {
          "indexed": false,
          "internalType": "uint256",
          "name": "_tokenId",
          "type": "uint256"
        }
      ],
      "name": "MetadataUpdate",
      "type": "event"
    },
    {
      "anonymous": false,
      "inputs": [
        {
          "indexed": true,
          "internalType": "address",
          "name": "previousOwner",
          "type": "address"
        },
        {
          "indexed": true,
          "internalType": "address",
          "name": "newOwner",
          "type": "address"
        }
      ],
      "name": "OwnershipTransferred",
      "type": "event"
    },
    {
      "anonymous": false,
      "inputs": [
        {
          "indexed": true,
          "internalType": "address",
          "name": "to",
          "type": "address"
        },
        {
          "indexed": true,
          "internalType": "uint256",
          "name": "tokenId",
          "type": "uint256"
        },
        {
          "indexed": false,
          "internalType": "string",
          "name": "tokenURI",
          "type": "string"
        }
      ],
      "name": "TokenMinted",
      "type": "event"
    },
    {
      "anonymous": false,
      "inputs": [
        {
          "indexed": true,
          "internalType": "uint256",
          "name": "tokenId",
          "type": "uint256"
        },
        {
          "indexed": false,
          "internalType": "string",
          "name": "newTokenURI",
          "type": "string"
        }
      ],
      "name": "TokenURIUpdated",
      "type": "event"
    },
    {
      "anonymous": false,
      "inputs": [
        {
          "indexed": true,
          "internalType": "address",
          "name": "from",
          "type": "address"
        },
        {
          "indexed": true,
          "internalType": "address",
          "name": "to",
          "type": "address"
        },
        {
          "indexed": true,
          "internalType": "uint256",
          "name": "tokenId",
          "type": "uint256"
        }
      ],
      "name": "Transfer",
      "type": "event"
    },
    {
      "inputs": [
        {
          "internalType": "address",
          "name": "to",
          "type": "address"
        },
        {
          "internalType": "uint256",
          "name": "tokenId",
          "type": "uint256"
        }
      ],
      "name": "approve",
      "outputs": [],
      "stateMutability": "nonpayable",
      "type": "function"
    },
    {
      "inputs": [
        {
          "internalType": "address",
          "name": "owner",
          "type": "address"
        }
      ],
      "name": "balanceOf",
      "outputs": [
        {
          "internalType": "uint256",
          "name": "",
          "type": "uint256"
        }
      ],
      "stateMutability": "view",
      "type": "function"
    },
    {
      "inputs": [
        {
          "internalType": "address[]",
          "name": "recipients",
          "type": "address[]"
        },
        {
          "internalType": "string[]",
          "name": "tokenURIs",
          "type": "string[]"
        }
      ],
      "name": "batchMint",
      "outputs": [],
      "stateMutability": "nonpayable",
      "type": "function"
    },
    {
      "inputs": [
        {
          "internalType": "uint256",
          "name": "tokenId",
          "type": "uint256"
        }
      ],
      "name": "exists",
      "outputs": [
        {
          "internalType": "bool",
          "name": "",
          "type": "bool"
        }
      ],
      "stateMutability": "view",
      "type": "function"
    },
    {
      "inputs": [
        {
          "internalType": "uint256",
          "name": "tokenId",
          "type": "uint256"
        }
      ],
      "name": "getApproved",
      "outputs": [
        {
          "internalType": "address",
          "name": "",
          "type": "address"
        }
      ],
      "stateMutability": "view",
      "type": "function"
    },
    {
      "inputs": [],
      "name": "getCurrentTokenId",
      "outputs": [
        {
          "internalType": "uint256",
          "name": "",
          "type": "uint256"
        }
      ],
      "stateMutability": "view",
      "type": "function"
    },
    {
      "inputs": [
        {
          "internalType": "address",
          "name": "owner",
          "type": "address"
        },
        {
          "internalType": "address",
          "name": "operator",
          "type": "address"
        }
      ],
      "name": "isApprovedForAll",
      "outputs": [
        {
          "internalType": "bool",
          "name": "",
          "type": "bool"
        }
      ],
      "stateMutability": "view",
      "type": "function"
    },
    {
      "inputs": [
        {
          "internalType": "string",
          "name": "uri",
          "type": "string"
        }
      ],
      "name": "isURIUsed",
      "outputs": [
        {
          "internalType": "bool",
          "name": "",
          "type": "bool"
        }
      ],
      "stateMutability": "view",
      "type": "function"
    },
    {
      "inputs": [],
      "name": "name",
      "outputs": [
        {
          "internalType": "string",
          "name": "",
          "type": "string"
        }
      ],
      "stateMutability": "view",
      "type": "function"
    },
    {
      "inputs": [],
      "name": "owner",
      "outputs": [
        {
          "internalType": "address",
          "name": "",
          "type": "address"
        }
      ],
      "stateMutability": "view",
      "type": "function"
    },
    {
      "inputs": [
        {
          "internalType": "uint256",
          "name": "tokenId",
          "type": "uint256"
        }
      ],
      "name": "ownerOf",
      "outputs": [
        {
          "internalType": "address",
          "name": "",
          "type": "address"
        }
      ],
      "stateMutability": "view",
      "type": "function"
    },
    {
      "inputs": [],
      "name": "renounceOwnership",
      "outputs": [],
      "stateMutability": "nonpayable",
      "type": "function"
    },
    {
      "inputs": [
        {
          "internalType": "address",
          "name": "to",
          "type": "address"
        },
        {
          "internalType": "string",
          "name": "_tokenURI",
          "type": "string"
        }
      ],
      "name": "safeMint",
      "outputs": [
        {
          "internalType": "uint256",
          "name": "",
          "type": "uint256"
        }
      ],
      "stateMutability": "nonpayable",
      "type": "function"
    },
    {
      "inputs": [
        {
          "internalType": "address",
          "name": "from",
          "type": "address"
        },
        {
          "internalType": "address",
          "name": "to",
          "type": "address"
        },
        {
          "internalType": "uint256",
          "name": "tokenId",
          "type": "uint256"
        }
      ],
      "name": "safeTransferFrom",
      "outputs": [],
      "stateMutability": "nonpayable",
      "type": "function"
    },
    {
      "inputs": [
        {
          "internalType": "address",
          "name": "from",
          "type": "address"
        },
        {
          "internalType": "address",
          "name": "to",
          "type": "address"
        },
        {
          "internalType": "uint256",
          "name": "tokenId",
          "type": "uint256"
        },
        {
          "internalType": "bytes",
          "name": "data",
          "type": "bytes"
        }
      ],
      "name": "safeTransferFrom",
      "outputs": [],
      "stateMutability": "nonpayable",
      "type": "function"
    },
    {
      "inputs": [
        {
          "internalType": "address",
          "name": "operator",
          "type": "address"
        },
        {
          "internalType": "bool",
          "name": "approved",
          "type": "bool"
        }
      ],
      "name": "setApprovalForAll",
      "outputs": [],
      "stateMutability": "nonpayable",
      "type": "function"
    },
    {
      "inputs": [
        {
          "internalType": "bytes4",
          "name": "interfaceId",
          "type": "bytes4"
        }
      ],
      "name": "supportsInterface",
      "outputs": [
        {
          "internalType": "bool",
          "name": "",
          "type": "bool"
        }
      ],
      "stateMutability": "view",
      "type": "function"
    },
    {
      "inputs": [],
      "name": "symbol",
      "outputs": [
        {
          "internalType": "string",
          "name": "",
          "type": "string"
        }
      ],
      "stateMutability": "view",
      "type": "function"
    },
    {
      "inputs": [
        {
          "internalType": "uint256",
          "name": "tokenId",
          "type": "uint256"
        }
      ],
      "name": "tokenURI",
      "outputs": [
        {
          "internalType": "string",
          "name": "",
          "type": "string"
        }
      ],
      "stateMutability": "view",
      "type": "function"
    },
    {
      "inputs": [],
      "name": "totalSupply",
      "outputs": [
        {
          "internalType": "uint256",
          "name": "",
          "type": "uint256"
        }
      ],
      "stateMutability": "view",
      "type": "function"
    },
    {
      "inputs": [
        {
          "internalType": "address",
          "name": "from",
          "type": "address"
        },
        {
          "internalType": "address",
          "name": "to",
          "type": "address"
        },
        {
          "internalType": "uint256",
          "name": "tokenId",
          "type": "uint256"
        }
      ],
      "name": "transferFrom",
      "outputs": [],
      "stateMutability": "nonpayable",
      "type": "function"
    },
    {
      "inputs": [
        {
          "internalType": "address",
          "name": "newOwner",
          "type": "address"
        }
      ],
      "name": "transferOwnership",
      "outputs": [],
      "stateMutability": "nonpayable",
      "type": "function"
    },
    {
      "inputs": [
        {
          "internalType": "uint256",
          "name": "tokenId",
          "type": "uint256"
        },
        {
          "internalType": "string",
          "name": "newTokenURI",
          "type": "string"
        }
      ],
      "name": "updateTokenURI",
      "outputs": [],
      "stateMutability": "nonpayable",
      "type": "function"
    }
  ],
  "bytecode": "0x60806040525f600855348015610013575f5ffd5b50604051611f48380380611f488339810160408190526100329161017c565b3382825f6100408382610265565b50600161004d8282610265565b5050506001600160a01b03811661007d57604051631e4fbdf760e01b81525f600482015260240160405180910390fd5b6100868161008e565b50505061031f565b600780546001600160a01b038381166001600160a01b0319831681179093556040519116919082907f8be0079c531659141344cd1fd0a4f28419497f9722a3daafe3b4186f6b6457e0905f90a35050565b634e487b7160e01b5f52604160045260245ffd5b5f82601f830112610102575f5ffd5b81516001600160401b0381111561011b5761011b6100df565b604051601f8201601f19908116603f011681016001600160401b0381118282101715610149576101496100df565b604052818152838201602001851015610160575f5ffd5b8160208501602083015e5f918101602001919091529392505050565b5f5f6040838503121561018d575f5ffd5b82516001600160401b038111156101a2575f5ffd5b6101ae858286016100f3565b602085015190935090506001600160401b038111156101cb575f5ffd5b6101d7858286016100f3565b9150509250929050565b600181811c908216806101f557607f821691505b60208210810361021357634e487b7160e01b5f52602260045260245ffd5b50919050565b601f82111561026057805f5260205f20601f840160051c8101602085101561023e5750805b601f840160051c820191505b8181101561025d575f815560010161024a565b50505b505050565b81516001600160401b0381111561027e5761027e6100df565b6102928161028c84546101e1565b84610219565b6020601f8211600181146102c4575f83156102ad5750848201515b5f19600385901b1c1916600184901b17845561025d565b5f84815260208120601f198516915b828110156102f357878501518255602094850194600190920191016102d3565b508482101561031057868401515f19600387901b60f8161c191681555b50505050600190811b01905550565b611c1c8061032c5f395ff3fe608060405234801561000f575f5ffd5b5060043610610148575f3560e01c806364ba144e116100bf578063a22cb46511610079578063a22cb465146102ab578063b88d4fde146102be578063c87b56dd146102d1578063d204c45e146102e4578063e985e9c5146102f7578063f2fde38b1461030a575f5ffd5b806364ba144e1461025157806370a0823114610264578063715018a6146102775780637c6d908b1461027f5780638da5cb5b1461029257806395d89b41146102a3575f5ffd5b806318e97fd11161011057806318e97fd1146101db57806323b872dd146101ee57806342842e0e146102015780634f558e791461021457806356189236146101c95780636352211e1461023e575f5ffd5b806301ffc9a71461014c57806306fdde0314610174578063081812fc14610189578063095ea7b3146101b457806318160ddd146101c9575b5f5ffd5b61015f61015a3660046114b7565b61031d565b60405190151581526020015b60405180910390f35b61017c61032d565b60405161016b9190611500565b61019c610197366004611512565b6103bc565b6040516001600160a01b03909116815260200161016b565b6101c76101c2366004611544565b6103e3565b005b6008545b60405190815260200161016b565b6101c76101e9366004611628565b6103f2565b6101c76101fc36600461166c565b610578565b6101c761020f36600461166c565b610601565b61015f610222366004611512565b5f908152600260205260409020546001600160a01b0316151590565b61019c61024c366004611512565b610620565b6101c761025f366004611757565b61062a565b6101cd610272366004611810565b61076d565b6101c76107b2565b61015f61028d366004611829565b6107c5565b6007546001600160a01b031661019c565b61017c6107ef565b6101c76102b936600461185b565b6107fe565b6101c76102cc366004611894565b610809565b61017c6102df366004611512565b610821565b6101cd6102f236600461190b565b61082c565b61015f610305366004611940565b61093a565b6101c7610318366004611810565b610967565b5f610327826109a4565b92915050565b60605f805461033b90611971565b80601f016020809104026020016040519081016040528092919081815260200182805461036790611971565b80156103b25780601f10610389576101008083540402835291602001916103b2565b820191905f5260205f20905b81548152906001019060200180831161039557829003601f168201915b5050505050905090565b5f6103c6826109c8565b505f828152600460205260409020546001600160a01b0316610327565b6103ee828233610a00565b5050565b6103fa610a0d565b5f828152600260205260409020546001600160a01b03166104625760405162461bcd60e51b815260206004820152601e60248201527f56697669644e46543a20746f6b656e20646f6573206e6f74206578697374000060448201526064015b60405180910390fd5b5f8151116104825760405162461bcd60e51b8152600401610459906119a9565b6009816040516104929190611a02565b9081526040519081900360200190205460ff16156104c25760405162461bcd60e51b815260040161045990611a0d565b5f6104cc83610821565b90505f6009826040516104df9190611a02565b908152604051908190036020018120805492151560ff1990931692909217909155600190600990610511908590611a02565b908152604051908190036020019020805491151560ff1990921691909117905561053b8383610a3a565b827f931f495b9a8e5d8e61946ea5d61e021f636cfe213a801f97589c18c152e408bd8360405161056b9190611500565b60405180910390a2505050565b6001600160a01b0382166105a157604051633250574960e11b81525f6004820152602401610459565b5f6105ad838333610a89565b9050836001600160a01b0316816001600160a01b0316146105fb576040516364283d7b60e01b81526001600160a01b0380861660048301526024820184905282166044820152606401610459565b50505050565b61061b83838360405180602001604052805f815250610809565b505050565b5f610327826109c8565b610632610a0d565b80518251146106835760405162461bcd60e51b815260206004820181905260248201527f56697669644e46543a20617272617973206c656e677468206d69736d617463686044820152606401610459565b5f8251116106cc5760405162461bcd60e51b815260206004820152601660248201527556697669644e46543a20656d7074792061727261797360501b6044820152606401610459565b60328251111561071e5760405162461bcd60e51b815260206004820152601960248201527f56697669644e46543a20626174636820746f6f206c61726765000000000000006044820152606401610459565b5f5b825181101561061b5761076583828151811061073e5761073e611a44565b602002602001015183838151811061075857610758611a44565b6020026020010151610b12565b600101610720565b5f6001600160a01b038216610797576040516322718ad960e21b81525f6004820152602401610459565b506001600160a01b03165f9081526003602052604090205490565b6107ba610a0d565b6107c35f610c15565b565b5f6009826040516107d69190611a02565b9081526040519081900360200190205460ff1692915050565b60606001805461033b90611971565b6103ee338383610c66565b610814848484610578565b6105fb3385858585610cfc565b606061032782610e24565b5f610835610a0d565b5f8251116108555760405162461bcd60e51b8152600401610459906119a9565b6009826040516108659190611a02565b9081526040519081900360200190205460ff16156108955760405162461bcd60e51b815260040161045990611a0d565b600880545f91826108a583611a58565b91905055905060016009846040516108bd9190611a02565b908152604051908190036020019020805491151560ff199092169190911790556108e78482610f2f565b6108f18184610a3a565b80846001600160a01b03167fdf92894dc4675a7333caa5903b69cf5d8e8ec0d3f361c88207b6688e525703bb8560405161092b9190611500565b60405180910390a39392505050565b6001600160a01b039182165f90815260056020908152604080832093909416825291909152205460ff1690565b61096f610a0d565b6001600160a01b03811661099857604051631e4fbdf760e01b81525f6004820152602401610459565b6109a181610c15565b50565b5f6001600160e01b03198216632483248360e11b1480610327575061032782610f48565b5f818152600260205260408120546001600160a01b03168061032757604051637e27328960e01b815260048101849052602401610459565b61061b8383836001610f97565b6007546001600160a01b031633146107c35760405163118cdaa760e01b8152336004820152602401610459565b5f828152600660205260409020610a518282611ac0565b506040518281527ff8e1a15aba9398e019f0b49df1a4fde98ee17ae345cb5f6b5e2c27f5033e8ce79060200160405180910390a15050565b5f828152600260205260408120546001600160a01b03908116908516158015610aba57506001600160a01b03811615155b15610afe575f610ac985610821565b90505f600982604051610adc9190611a02565b908152604051908190036020019020805491151560ff19909216919091179055505b610b0985858561109b565b95945050505050565b5f815111610b325760405162461bcd60e51b8152600401610459906119a9565b600981604051610b429190611a02565b9081526040519081900360200190205460ff1615610b725760405162461bcd60e51b815260040161045990611a0d565b600880545f9182610b8283611a58565b9190505590506001600983604051610b9a9190611a02565b908152604051908190036020019020805491151560ff19909216919091179055610bc48382610f2f565b610bce8183610a3a565b80836001600160a01b03167fdf92894dc4675a7333caa5903b69cf5d8e8ec0d3f361c88207b6688e525703bb84604051610c089190611500565b60405180910390a3505050565b600780546001600160a01b038381166001600160a01b0319831681179093556040519116919082907f8be0079c531659141344cd1fd0a4f28419497f9722a3daafe3b4186f6b6457e0905f90a35050565b6001600160a01b038216610c9857604051630b61174360e31b81526001600160a01b0383166004820152602401610459565b6001600160a01b038381165f81815260056020908152604080832094871680845294825291829020805460ff191686151590811790915591519182527f17307eab39ab6107e8899845ad3d59bd9653f200f220920489ca2b5937696c319101610c08565b6001600160a01b0383163b15610e1d57604051630a85bd0160e11b81526001600160a01b0384169063150b7a0290610d3e908890889087908790600401611b7b565b6020604051808303815f875af1925050508015610d78575060408051601f3d908101601f19168201909252610d7591810190611bb7565b60015b610ddf573d808015610da5576040519150601f19603f3d011682016040523d82523d5f602084013e610daa565b606091505b5080515f03610dd757604051633250574960e11b81526001600160a01b0385166004820152602401610459565b805160208201fd5b6001600160e01b03198116630a85bd0160e11b14610e1b57604051633250574960e11b81526001600160a01b0385166004820152602401610459565b505b5050505050565b6060610e2f826109c8565b505f8281526006602052604081208054610e4890611971565b80601f0160208091040260200160405190810160405280929190818152602001828054610e7490611971565b8015610ebf5780601f10610e9657610100808354040283529160200191610ebf565b820191905f5260205f20905b815481529060010190602001808311610ea257829003601f168201915b505050505090505f610edb60408051602081019091525f815290565b905080515f03610eec575092915050565b815115610f1e578082604051602001610f06929190611bd2565b60405160208183030381529060405292505050919050565b610f278461118d565b949350505050565b6103ee828260405180602001604052805f8152506111fe565b5f6001600160e01b031982166380ac58cd60e01b1480610f7857506001600160e01b03198216635b5e139f60e01b145b8061032757506301ffc9a760e01b6001600160e01b0319831614610327565b8080610fab57506001600160a01b03821615155b1561106c575f610fba846109c8565b90506001600160a01b03831615801590610fe65750826001600160a01b0316816001600160a01b031614155b8015610ff95750610ff7818461093a565b155b156110225760405163a9fbf51f60e01b81526001600160a01b0384166004820152602401610459565b811561106a5783856001600160a01b0316826001600160a01b03167f8c5be1e5ebec7d5bd14f71427d1e84f3dd0314c0f7b2291e5b200ac8c7c3b92560405160405180910390a45b505b50505f90815260046020526040902080546001600160a01b0319166001600160a01b0392909216919091179055565b5f828152600260205260408120546001600160a01b03908116908316156110c7576110c7818486611215565b6001600160a01b03811615611101576110e25f855f5f610f97565b6001600160a01b0381165f90815260036020526040902080545f190190555b6001600160a01b0385161561112f576001600160a01b0385165f908152600360205260409020805460010190555b5f8481526002602052604080822080546001600160a01b0319166001600160a01b0389811691821790925591518793918516917fddf252ad1be2c89b69c2b068fc378daa952ba7f163c4a11628f55a4df523b3ef91a4949350505050565b6060611198826109c8565b505f6111ae60408051602081019091525f815290565b90505f8151116111cc5760405180602001604052805f8152506111f7565b806111d684611279565b6040516020016111e7929190611bd2565b6040516020818303038152906040525b9392505050565b6112088383611309565b61061b335f858585610cfc565b61122083838361136a565b61061b576001600160a01b03831661124e57604051637e27328960e01b815260048101829052602401610459565b60405163177e802f60e01b81526001600160a01b038316600482015260248101829052604401610459565b60605f611285836113cb565b60010190505f8167ffffffffffffffff8111156112a4576112a461156c565b6040519080825280601f01601f1916602001820160405280156112ce576020820181803683370190505b5090508181016020015b5f19016f181899199a1a9b1b9c1cb0b131b232b360811b600a86061a8153600a85049450846112d857509392505050565b6001600160a01b03821661133257604051633250574960e11b81525f6004820152602401610459565b5f61133e83835f610a89565b90506001600160a01b0381161561061b576040516339e3563760e11b81525f6004820152602401610459565b5f6001600160a01b03831615801590610f275750826001600160a01b0316846001600160a01b031614806113a357506113a3848461093a565b80610f275750505f908152600460205260409020546001600160a01b03908116911614919050565b5f8072184f03e93ff9f4daa797ed6e38ed64bf6a1f0160401b83106114095772184f03e93ff9f4daa797ed6e38ed64bf6a1f0160401b830492506040015b6d04ee2d6d415b85acef81000000008310611435576d04ee2d6d415b85acef8100000000830492506020015b662386f26fc10000831061145357662386f26fc10000830492506010015b6305f5e100831061146b576305f5e100830492506008015b612710831061147f57612710830492506004015b60648310611491576064830492506002015b600a83106103275760010192915050565b6001600160e01b0319811681146109a1575f5ffd5b5f602082840312156114c7575f5ffd5b81356111f7816114a2565b5f81518084528060208401602086015e5f602082860101526020601f19601f83011685010191505092915050565b602081525f6111f760208301846114d2565b5f60208284031215611522575f5ffd5b5035919050565b80356001600160a01b038116811461153f575f5ffd5b919050565b5f5f60408385031215611555575f5ffd5b61155e83611529565b946020939093013593505050565b634e487b7160e01b5f52604160045260245ffd5b604051601f8201601f1916810167ffffffffffffffff811182821017156115a9576115a961156c565b604052919050565b5f5f67ffffffffffffffff8411156115cb576115cb61156c565b50601f8301601f19166020016115e081611580565b9150508281528383830111156115f4575f5ffd5b828260208301375f602084830101529392505050565b5f82601f830112611619575f5ffd5b6111f7838335602085016115b1565b5f5f60408385031215611639575f5ffd5b82359150602083013567ffffffffffffffff811115611656575f5ffd5b6116628582860161160a565b9150509250929050565b5f5f5f6060848603121561167e575f5ffd5b61168784611529565b925061169560208501611529565b929592945050506040919091013590565b5f67ffffffffffffffff8211156116bf576116bf61156c565b5060051b60200190565b5f82601f8301126116d8575f5ffd5b81356116eb6116e6826116a6565b611580565b8082825260208201915060208360051b86010192508583111561170c575f5ffd5b602085015b8381101561174d57803567ffffffffffffffff81111561172f575f5ffd5b61173e886020838a010161160a565b84525060209283019201611711565b5095945050505050565b5f5f60408385031215611768575f5ffd5b823567ffffffffffffffff81111561177e575f5ffd5b8301601f8101851361178e575f5ffd5b803561179c6116e6826116a6565b8082825260208201915060208360051b8501019250878311156117bd575f5ffd5b6020840193505b828410156117e6576117d584611529565b8252602093840193909101906117c4565b9450505050602083013567ffffffffffffffff811115611804575f5ffd5b611662858286016116c9565b5f60208284031215611820575f5ffd5b6111f782611529565b5f60208284031215611839575f5ffd5b813567ffffffffffffffff81111561184f575f5ffd5b610f278482850161160a565b5f5f6040838503121561186c575f5ffd5b61187583611529565b915060208301358015158114611889575f5ffd5b809150509250929050565b5f5f5f5f608085870312156118a7575f5ffd5b6118b085611529565b93506118be60208601611529565b925060408501359150606085013567ffffffffffffffff8111156118e0575f5ffd5b8501601f810187136118f0575f5ffd5b6118ff878235602084016115b1565b91505092959194509250565b5f5f6040838503121561191c575f5ffd5b61192583611529565b9150602083013567ffffffffffffffff811115611656575f5ffd5b5f5f60408385031215611951575f5ffd5b61195a83611529565b915061196860208401611529565b90509250929050565b600181811c9082168061198557607f821691505b6020821081036119a357634e487b7160e01b5f52602260045260245ffd5b50919050565b60208082526022908201527f56697669644e46543a20746f6b656e5552492063616e6e6f7420626520656d70604082015261747960f01b606082015260800190565b5f81518060208401855e5f93019283525090919050565b5f6111f782846119eb565b6020808252601f908201527f56697669644e46543a20746f6b656e55524920616c7265616479207573656400604082015260600190565b634e487b7160e01b5f52603260045260245ffd5b5f60018201611a7557634e487b7160e01b5f52601160045260245ffd5b5060010190565b601f82111561061b57805f5260205f20601f840160051c81016020851015611aa15750805b601f840160051c820191505b81811015610e1d575f8155600101611aad565b815167ffffffffffffffff811115611ada57611ada61156c565b611aee81611ae88454611971565b84611a7c565b6020601f821160018114611b20575f8315611b095750848201515b5f19600385901b1c1916600184901b178455610e1d565b5f84815260208120601f198516915b82811015611b4f5787850151825560209485019460019092019101611b2f565b5084821015611b6c57868401515f19600387901b60f8161c191681555b50505050600190811b01905550565b6001600160a01b03858116825284166020820152604081018390526080606082018190525f90611bad908301846114d2565b9695505050505050565b5f60208284031215611bc7575f5ffd5b81516111f7816114a2565b5f610f27611be083866119eb565b846119eb56fea26469706673582212200dcafae50266ac9039e2dc1fd948f1a8d8cd5e5838a96b8a2b04780ca5ef048064736f6c634300081c0033",
  "linkReferences": {},
  "deployedLinkReferences": {},
  "immutableReferences": {},
  "inputSourceName": "project/contracts/JobTwo/VividNFT.sol",
  "buildInfoId": "solc-0_8_28-6fe0978eb821a65c9922f713465a93ee83df795f"
}